:020000040000FA
:1000000048270020150400001D0400001F04000004
:10001000210400002304000025040000000000006B
:1000200000000000000000000000000027040000A5
:1000300029040000000000002B0400002D04000033
:100040002F0400002F040000610B00002F040000AB
:100050002F0400002F040000950400002F0400006E
:100060002F0400002F0400002F0400002F040000C4
:100070002F0400002F0400002F0400002F040000B4
:100080002F0400004D0600002F0400002F04000084
:10009000C10800002F0400002F0400002F040000FE
:1000A0002F0400002F0400002F0400002F04000084
:1000B0002F0400002F0400000000000000000000DA
:1000C0002F0400002F0400002F0400002F04000064
:1000D0002F0400002F0400002F0400000000000087
:1000E0000000000000000000000000000000000010
:1000F0000000000000000000000000000000000000
:1001000000000000000000000000000000000000EF
:1001100000000000000000000000000000000000DF
:10040000DFF80CD000F034F800480047FD11000080
:10041000482700200648804706480047FEE7FEE7D9
:10042000FEE7FEE7FEE7FEE7FEE7FEE7FEE7FEE7A4
:10043000C50800000104000040EA01039B0703D047
:1004400009E008C9121F08C0042AFAD203E011F813
:10045000013B00F8013B521EF9D27047034611F8E8
:10046000012B00F8012B002AF9D118467047000033
:10047000064C074D06E0E06840F0010394E80700F1
:1004800098471034AC42F6D3FFF7BEFF101A0000B5
:10049000301A00002DE9F04700268CB0DFF860919B
:1004A000B0464FF48075012437460696284600F082
:1004B00085FF38B1D9F80403204203D0284600F064
:1004C00073FF26432D1D64007F1CADB2082FEDD3B2
:1004D0004FF4BE74204600F071FF48B1204600F092
:1004E00063FF46F0004606AA0121002000F048FF05
:1004F000444D16F0FF0F15D00127002437420DD0D0
:1005000009EB8401D1F81005D1F81015C0F30420CF
:1005100055F82420C1F3014102B190477F00641CCB
:10052000082CEBD3002E67DA4FF0FF30CDE90880BE
:1005300000263446281910F8507F90F9000027F063
:10054000C008401C44D009A9404600F073FE58B3CF
:100550004FEA9719404600F023FD55F820701FB16F
:10056000B9F1030F03D00FE0B9F1030F30D108A8A0
:100570004FEAD80208F00703815C4FF0010C0CFA37
:1005800003FC41EA0C0181544FF0A04101EB8800CB
:10059000D0F8000706A9C0F3014A404600F04AFE21
:1005A00018B1BAF1020F03D012E0BAF1030F0FD164
:1005B000B9F1030F08D1BAF1020F1BD00221404656
:1005C00000F0CCFE761CF6B217B149464046B8475B
:1005D000641C042CAED3002E0ED06A4601210020EC
:1005E00000F0CEFE06990098884205D00690089843
:1005F00009909DE70321E2E70CB0BDE8F087000019
:10060000006000403000002000F01F0201219140F6
:100610004009800000F1E020C0F88012704700F02F
:100620001F02012191404009800000F1E020C0F844
:100630000011704700F01F02012191404009800025
:1006400000F1E020C0F800127047000007480021C8
:10065000C0F84011C0F84411C0F84811C0F84C115E
:10066000C0F80011C0F8041101F048B800100140B2
:1006700003480078002801D100F080BA70470000DC
:10068000D0060020F8B50B4B0646144618780D46E8
:1006900008B900F073FA0020009000F030FC224608
:1006A0002946304600F008F80446002000F029FCF6
:1006B0002046F8BDD006002070B50E46144900EB68
:1006C000400001EBC0051446E86A183520B1012846
:1006D0000FD0022805D113E0284600F083FAA0428B
:1006E00001D2002411E022463146284600F0A0FB4A
:1006F0000BE0284600F076FAA042F4D20446F2E776
:100700003146284600F067FB0446204670BD0000D5
:10071000D00600200FB408B504A900916A460399D9
:1007200000F003F801B05DF814FB2DE9F04198B03A
:10073000064607A8029040200025CDE90305CDE933
:10074000055690460C4614F8011B002973D0252944
:1007500008D002A800F020FB05980028F3DA18B0B2
:10076000BDE8F08100200122217823291ED02B2909
:1007700019D02D2902D0302908D102E040F0010023
:1007800001E040F00200641C002AEDD10022217833
:10079000A1F130030A2B0CD202EB820201EB4202E0
:1007A000303A641CF3E740F00400ECE740F0080046
:1007B000E9E70023CFB22E2F0BD114F8011FA1F1CE
:1007C00030070A2F05D203EB830301EB4303303BD1
:1007D000F3E76C290DD068290BD0702954D00BDCBD
:1007E000252916D0582931D063290CD0642913D17A
:1007F00014E014F8011BECE7732934D075291BD0E1
:10080000782909D122E0D8F80000011DC8F80010AD
:10081000017802A800F0C0FA641C9DE7D8F8001027
:100820000F1DC8F800700968CDE900200A2202A84F
:1008300000F0E4F9F0E733E0D8F800100F1DC8F835
:1008400000700968CDE900200A2208E0D8F80010FD
:100850000F1DC8F800700968CDE90020102202A819
:1008600000F030FAD8E7D8F80000011DC8F80010F1
:10087000076817F8011B0029CED002A800F08CFAF7
:1008800005980028F5DAC7E7D8F80000011DC8F878
:10089000001001680820CDE9000503461022DEE7BC
:1008A000059800287FF75BAF049820B1024607A99E
:1008B0003046FFF7E7FEDDE90410084405904EE7F7
:1008C00000F0B8BEF0B598480023021D017801255C
:1008D000101D4FF08056062907D11478240704D143
:1008E0000478C4F30314032C02D0062904D00FE0CB
:1008F0008F4F8E4C7C670EE01478240708D1047863
:10090000C4F30314032C06D0042C04D0052C02D00D
:10091000062907D00EE0D6F84442864FC4F342348D
:100920003C6002E01478240704D10478C4F3031473
:10093000032C02D0062906D011E07F4C276827F04F
:10094000807727600EE01478240708D10478C4F378
:100950000314032C06D0042C04D0052C02D0062945
:100960000AD011E04FF08044C4F80C31C4F81031C3
:10097000704C241F236002E01478240704D104780B
:10098000C4F30314032C02D0062905D00CE0694FF0
:10099000032464373C600AE01478240704D1047807
:1009A000C4F30314032C02D006290DD014E0634FC6
:1009B00005243C60614C78342560604C0834236029
:1009C0003F243F1D3C6002E01478240704D10478E2
:1009D000C4F30314052C02D0062957D068E0584907
:1009E0000968584A11605649091D0968121D1160AD
:1009F000534908310968121D116051490C310968C9
:100A0000121D11604E4910310968121D11604C49C8
:100A100014310968121D1160494918310968494AA1
:100A20002032116046491C310968121D1160444989
:100A300020310968121D1160414924310968121DD5
:100A400011603F4928310968121D11603C492C3161
:100A50000968121D11603A4930310968394A40323B
:100A60001160374934310968121D11603449383139
:100A70000968121D116032493C310968121D11606C
:100A80002F4940310968121D116002E011780907F1
:100A90000ED10078C0F30310032803D0042801D03E
:100AA000052805D1D6F85802274900F04F00086004
:100AB00021487438016841F470010160BFF34F8F21
:100AC000BFF36F8F4FF01021D1F80002002803DB35
:100AD000D1F80402002822DA1C4A15601C48046878
:100AE000002CFCD01524C1F800420568002DFCD074
:100AF000C1F8044201680029FCD013600168002994
:100B0000FCD0BFF34F8F0C48F0380168114A01F454
:100B1000E06111430160BFF34F8F00BFFDE70F4954
:100B20000D480860F0BD0000E00F00F00DF0ADBA18
:100B300000C007403C050040FCED00E010560040BE
:100B40000404001020C50040E40E004004E501400C
:100B500000E401400400FA050090D0032C000020BE
:100B60000448017F04480029024901D000F0B5BEC5
:100B700000F024BE880000200020004010B5124C78
:100B800002202061606111A0A061A4F50470E06101
:100B90004FF4007020620020A06260620BA1A1648B
:100BA000E062A4F11001E16410212165A065606597
:100BB000E06509A1E01DFFF751FC08A12046FFF701
:100BC0004DFC2020A07110BDD00600205465726D30
:100BD000696E616C00000000525454005345474751
:100BE000455200000269C1688A4203D88068401AF1
:100BF000104400E0501A401E704700002DE9FC5FD1
:100C00000E008146DDE90C47C6F100009846934688
:100C1000824600D40846012503E000BF90FBFBF0AC
:100C20006D1C5845FADAA84500D9454624B1002E76
:100C300001DB780700D5641EB80702D5B8F1000FB4
:100C40000FD0F8070DD164B1A5420AD22021484641
:100C5000641E00F0A1F8D9F80C000028F3DABDE812
:100C6000FC9FD9F80C000028F9DB002E02DA56466A
:100C70002D2102E0780707D52B21484600F08CF89B
:100C8000D9F80C000028EADB07F0030002280FD196
:100C9000B8F1000F0CD15CB1A54209D23021484611
:100CA000641E00F079F8D9F80C000028F3DAD6E7D2
:100CB000CDE9004743465A463146484600F002F81F
:100CC000CDE700002DE9F84F8246DDE90A4B012609
:100CD000984691460D460846374602E0B0FBF9F0CB
:100CE0007F1C4845FAD2B84500D947465FEACB7029
:100CF00017D1B4B15FEA8B7002D5B8F1000F02D002
:100D0000202000900BE03020FBE75046641E009945
:100D100000F042F8DAF80C00002838DB0CB1A742EA
:100D2000F3D3DAF80C00002831DB00BFB8F1010F73
:100D300002D9A8F1010803E0B5FBF6F0484502D35B
:100D400006FB09F6F2E7DFF84C8000BFB5FBF6F0D2
:100D500000FB165518F80010504600F01DF8DAF8A0
:100D60000C00002803DBB6FBF9F6002EEED15FEA9B
:100D7000CB700CD0002C0AD0A74208D220215046BC
:100D8000641E00F009F8DAF80C000028F2DABDE879
:100D9000F88F0000F419000010B50446D4E90130C2
:100DA000421C934205D323681954A260E068401C9A
:100DB000E060D4E90102824209D121682069FFF78D
:100DC00061FCA168884203D04FF0FF30E06010BDA5
:100DD0000020A06010BD2DE9F047C4681746894681
:100DE00006464FF000083069A04201D9051B02E019
:100DF000B168201A0D1AB0686D1E001BA84200D8F9
:100E00000546BD4200D33D4670682A462044494607
:100E1000FFF712FBB0687F1B2C44A844A944A042F2
:100E200000D10024F460002FDDD14046BDE8F087FA
:100E30002DE9F041C6680446174688468068851B40
:100E40006068BD4206D93044FFF7F6FAF019E06059
:100E5000BDE8F0812A463044FFF7EEFA7E1B08EB2E
:100E6000050132466068FFF7E7FAE660F0E702E066
:100E700008C8121F08C1002AFAD170477047002025
:100E800001E001C1121F002AFBD170470EA1012011
:100E900000F04AFB00F0ACFA00F0AEFA0028FBD1FB
:100EA0000F480068C00700D000BEBFF34F8F0C484A
:100EB000E43801680B4A01F4E06111430160BFF3BB
:100EC0004F8F00BFFDE700004150505F4552524F29
:100ED000523A4552524F523A466174616C0D0A00C3
:100EE000F0ED00E00400FA050EB500210091CDE917
:100EF00001106A4644F20100FFF7C8FF0EBD00F082
:100F000003B800F009B8000072B602480168491C35
:100F1000016070472000002003490868401E0860F7
:100F200000D162B6704700002000002070B5461C5A
:100F30000D4601240020FFF7E2FF114A10682860E7
:100F4000D2E900109568081A2B1A701C5B1C984295
:100F50000FD963B10B480C4B294000681B6802EBAA
:100F6000810163F39F20C8601068401C106000245A
:100F700001E0881910600020FFF7C3FF204670BD14
:100F8000A8000020D019000028000020034803C852
:100F9000814201D10120704700207047A800002045
:100FA0000249084490F930007047000030000020EA
:100FB0002DE9F05F26484168F1B3DFF898B00E687C
:100FC0008146DBF8004087688078E11B21F07F458F
:100FD000ED1CB0B9DFF880804FF48030C8F84403CE
:100FE000C8F804031120FFF70FFB1120FFF717FBD0
:100FF0004FF0010AC8F800A02F2000F069F989F825
:1010000002A0B54200D23546124BE8193C3320F01D
:101010007F401860DBF800105A46091B21F07F4121
:10102000001B20F07F40C91C81420FD91068186056
:101030002F2000F04DF900E004E0BDE8F05F112042
:10104000FFF7F8BABDE8F05F00F0B0BABDE8F09F76
:101050000000002004150140001001400E4910B5A9
:101060000A784C780023A24212D0521CD2B20A70E5
:10107000022A00D10B70084A0B78183252F823204C
:1010800002608868104420F07F408860012010BD15
:101090000360002010BD0000000000202DE9F04397
:1010A000264CA4F110092278D9F8048099F803504D
:1010B000404694F801C0D9F8086031E002EB4203E1
:1010C0006168521C01EBC301A378D2B2934200D1F4
:1010D00000220B78022B02D0032B21D11DE0034606
:1010E0004F68194603E0B94203D00B46C969B9B14C
:1010F000F9E7A9B18B4205D1C06918B9104E012595
:10110000B56000260F68C969D96149B10B683B44D5
:101110000B6005E00174C06900E000210028F9D1EE
:101120009445CBD1C9E9010689F80350404502D066
:101130000120BDE8F0830020FBE700001000002044
:10114000001001402DE9F0412A4F0446002607F126
:101150001005D7F804803EE002D02046E4691DE087
:101160002878696800EB4002401CC0B201EBC20164
:101170002870AA78904200D12E700A784868012A17
:101180002BD1027C4ABB8A684260CA6882600A69C5
:10119000C26049698161F97801B146604368BA6803
:1011A000DFF854C0991A21F07F41614502D282686C
:1011B000114406E0D11A826821F07F418A4202D9A7
:1011C000511A016000E006604660012186600174EA
:1011D000C66100F075FA002CBED128786978884283
:1011E000BED17968414502D00120BDE8F0810020E0
:1011F000FBE7000000000020FFFF7F00054D0024FA
:10120000224605A10020FFF785FA284600F01AF8CB
:10121000641CF5E740420F005365636F6E647320F2
:1012200073696E636520737461727465643A202516
:10123000640D0A00C20800F007030120895C984091
:101240000840704700283ED01F49204A096800BF67
:1012500000BF00BF00BF00BF00BF00BF00BF914282
:101260002FD000BF00BF00BF00BF00BF00BF00BF46
:1012700000BF00BF00BF00BF00BF00BF00BF00BF76
:1012800000BF00BF00BF00BF00BF00BF00BF00BF66
:1012900000BF00BF00BF00BF00BF00BF00BF00BF56
:1012A00000BF00BF00BF00BF00BF00BF00BF00BF46
:1012B00000BF00BF00BF00BF00BF00BF00BF00BF36
:1012C00000BF0138C3D170472C0000200024F40077
:1012D00000283ED01F49204A096800BF00BF00BF58
:1012E00000BF00BF00BF00BF00BF91422FD000BFB2
:1012F00000BF00BF00BF00BF00BF00BF00BF00BFF6
:1013000000BF00BF00BF00BF00BF00BF00BF00BFE5
:1013100000BF00BF00BF00BF00BF00BF00BF00BFD5
:1013200000BF00BF00BF00BF00BF00BF00BF00BFC5
:1013300000BF00BF00BF00BF00BF00BF00BF00BFB5
:1013400000BF00BF00BF00BF00BF00BF00BF01382B
:10135000C3D170472C0000200024F4004FF0A042BD
:1013600002EB8000D0F8002722F44032C0F80027BA
:10137000D0F8002742EA0141C0F80017704700008A
:1013800018B5084B6C4601441B68009306E000BF8B
:1013900054F82030D3F81035401C08C28142F7D8E9
:1013A00018BD0000CC190000034908B5084400210D
:1013B00001600068009008BD00600040024940588C
:1013C000012800D0002070470060004070B5074D34
:1013D0000446287810B16878844204D0FFF748F9B1
:1013E000012028706C70002070BD000024000020D7
:1013F0000120FFF7EBBF00002DE9F04F87B0FFF7AA
:10140000C5FD18B1002007B0BDE8F08F454ED6E904
:10141000014704EA070006EB8000A146641CC5688A
:101420000CE000BFC5F3891000EB9550044404EABA
:10143000070006EB8000A146C568641CA807F1D030
:1014400005F003004FF0000B022805D0AA0A01A8FE
:10145000C5F38313002153E004EA070006EB800084
:1014600004F1010A0AEA0704C268381B80004FEA47
:101470009558001DC5F38913804521D929490C31A0
:1014800038B106EB840400F0FF0CA8EB00000C342C
:1014900004E00C46002108F0FF0C0846C0B2CDE97C
:1014A0000210CDE9004CD6F81444C5F3C2005946E9
:1014B000A047404511D108F103080AEB98042AE03F
:1014C000002106EB84000C300090CDE901810391EE
:1014D000C5F3C200D6F81444EAE760F38F1509EAB1
:1014E000070006EB8000C56016E000BF04EA070CA9
:1014F00006EB8C0C491CDCF80CC040F804CB641CD7
:101500009942F3D3C5F3C2000093D6F8105401AB4F
:101510005946A84700B17460FFF738FD80F001001C
:1015200071E70000A80000202DE9F8430F4F88461E
:101530000446002569462846BE68FFF7F7FC0028E8
:1015400012D00B480021406861F38200009964F3D7
:10155000C50001EA060265F3891007EB820268F311
:101560009F20491CD0600091BDE8F883A8000020AE
:10157000D01900004058002800D00120704708B55D
:10158000002242504058009008BDD0F804030840A3
:1015900000D0012070474058002800D0012070473B
:1015A00008B5002242504058009008BD70B5012691
:1015B00070044FF0E0210025C1F88001084C401074
:1015C000C4F84803C4F8080366602F20FFF780FEC4
:1015D000A660044C2F20A560FFF77AFEA57070BDB1
:1015E000001001400000002070B50546C87D0C4683
:1015F00000284FF4847128460AD0FFF7C0FFD5F8C1
:101600001805627EE1688854607E401C607670BD7B
:10161000FFF7B5FFD5F8180570BD1FB501238DF88C
:1016200000308DF808100192D0E90012684690470A
:101630001FBD00002DE9F84F204C00256846D4E975
:1016400001B6FFF70BFD8046FFF728FD0746A946C8
:10165000B8F1000F25D00023009ACC46606819E04D
:1016600007680146974202D9BA1A026014E0C1F82D
:1016700000C0D1F80C80D21BC8693B448A46B8F13F
:10168000000F07D0F71827F07F47C1E90178CAF8A3
:101690001C500D460028E3D160602846FFF752FD3C
:1016A00004E02846FFF74EFD00B917B15846FFF792
:1016B0007FFC84F80390BDE8F88F00000000002054
:1016C0000D4B10B5596831B102680C68A24204D8BC
:1016D000A21A0A60C161586010BD0B4603E00B46B8
:1016E000C969121B21B10C689442F8D3A41A0C608A
:1016F0000260C161D86110BD000000202DE9F041F9
:101700001D4D6C68002C35D01C4800270068A96866
:10171000B846401A20F07F462068B04215D82246CD
:10172000361A0744E469107C68B182F81080EB68CF
:1017300033B1D2E90501984728B1FFF7D5FB02E0A4
:10174000D2E905108847002CE6D1297868788142D3
:1017500006D1401CC0B26870022801D185F8018012
:1017600005486978183040F82170BDE8F041142030
:10177000FEF760BFBDE8F0810000002004150140C5
:1017800070B50C4605464FF48E71FFF7F8FEA18A3E
:10179000A068415CA08A401CA082C5F81C1570BDE1
:1017A0001FB500228DF800208DF808108168019186
:1017B0008275D0E90012684690471FBD2DE9FF47AA
:1017C0000C4605464FF40071FFF7DFFE01274FF48A
:1017D0000178002618B34FF4927949462846FFF75E
:1017E000C9FEE0B149462846FFF7C9FEC5F808839F
:1017F000A07E00B96F6002208DF80000D5F880044B
:10180000C5F880040390E07D8DF80800E068019041
:10181000E6752676D4E900126846904727E0042151
:101820002846FFF7B2FE10B34FF484712846FFF745
:10183000A1FEE0B121462846FFF7D6FEE07D617E9D
:10184000884214D1207E38B1617EE268E07520695B
:10185000E0602676667607E0A07E00B96F60C5F886
:101860000883E675617EE2682046FFF7D6FE4FF4F6
:101870008E7841462846FFF77DFE88B1A08AA17D7B
:10188000884204D221462846FFF77AFF08E0414605
:101890002846FFF774FEA17D11B12046FFF780FFB7
:1018A0004FF4A27841462846FFF764FE002812D084
:1018B00041462846FFF763FEA07E00B12F60E07D21
:1018C000002808D0E675617EE26804B02046BDE8D5
:1018D000F047FFF7A2BEBDE8FF872DE9FF410C46A8
:1018E0004FF4927705463946FFF755FE0026C0B102
:1018F00039462846FFF754FE02208DF80000D5F83F
:101900008004C5F880040390D5F83C058DF80800E4
:10191000E0680190E6752676D4E9001268469047A3
:1019200024E04FF4887739462846FFF734FEE8B1C3
:1019300039462846FFF734FED5F83C05C1B2E07DB4
:10194000884213D1207E60B1E268D5F8000220F011
:101950002000C5F80002207EE0752069E060267650
:1019600001E0E675E2682046FFF757FE4FF4A277E4
:1019700039462846FFF70FFE68B139462846FFF77B
:101980000FFEE07D38B1E675D5F83C05E268C1B2DE
:101990002046FFF742FE4FF4907631462846FFF787
:1019A000FAFD00280FD031462846FFF7F9FDA07D4B
:1019B000002808D0D5F84C0504B0C1B22046BDE8D7
:1019C000F041FFF7EDBEBDE8FF81000000000050D0
:1019D00029000000010000000100000001000000DB
:1019E00001000000010000000100000001000000F3
:1019F0000200000030313233343536373839414255
:101A0000434445464F766572666C6F770D0A000059
:101A1000301A000000000020300000006E0E0000B0
:101A2000601A000030000020182700007E0E000021
:101A300000000000000000000000000000000000A6
:101A40000000000000000000000000000000000096
:101A50000000000000000000041A00000090D00305
:0400000500000401F2
:00000001FF
