:020000040000FA
:1000000058270020150400001D0400001F040000F4
:10001000210400002304000025040000000000006B
:1000200000000000000000000000000027040000A5
:1000300029040000000000002B0400002D04000033
:100040002F0400002F040000990A00002F04000074
:100050002F0400002F040000A10400002F04000062
:100060002F0400002F0400002F0400002F040000C4
:100070002F0400002F0400002F0400002F040000B4
:100080002F040000590600002F0400002F04000078
:10009000F70700002F0400002F0400002F040000C9
:1000A0002F0400002F0400002F0400002F04000084
:1000B0002F0400002F0400000000000000000000DA
:1000C0002F0400002F0400002F0400002F04000064
:1000D0002F0400002F0400002F0400000000000087
:1000E0000000000000000000000000000000000010
:1000F0000000000000000000000000000000000000
:1001000000000000000000000000000000000000EF
:1001100000000000000000000000000000000000DF
:10040000DFF80CD000F03AF800480047590F000020
:10041000582700200648804706480047FEE7FEE7C9
:10042000FEE7FEE7FEE7FEE7FEE7FEE7FEE7FEE7A4
:10043000FD0700000104000040EA01039B0703D010
:1004400009E008C9121F08C0042AFAD203E011F813
:10045000013B00F8013B521EF9D27047421C10F8D4
:10046000011B0029FBD1801A7047034611F8012BAC
:1004700000F8012B002AF9D118467047064C074DA9
:1004800006E0E06840F0010394E807009847103464
:10049000AC42F6D3FFF7B8FFA4170000C417000062
:1004A0002DE9F04700268CB0DFF86091B0464FF49C
:1004B0008075012437460696284600F051FE38B173
:1004C000D9F80403204203D0284600F03FFE26431B
:1004D0002D1D64007F1CADB2082FEDD34FF4BE7408
:1004E000204600F03DFE48B1204600F02FFE46F0C9
:1004F000004606AA0121002000F014FE444D16F02B
:10050000FF0F15D00127002437420DD009EB8401DD
:10051000D1F81005D1F81015C0F3042055F82420A7
:10052000C1F3014102B190477F00641C082CEBD35A
:10053000002E67DA4FF0FF30CDE908800026344600
:10054000281910F8507F90F9000027F0C008401CCF
:1005500044D009A9404600F06FFD58B34FEA9719FF
:10056000404600F0CBFB55F820701FB1B9F1030FE6
:1005700003D00FE0B9F1030F30D108A84FEAD80239
:1005800008F00703815C4FF0010C0CFA03FC41EA10
:100590000C0181544FF0A04101EB8800D0F8000716
:1005A00006A9C0F3014A404600F046FD18B1BAF171
:1005B000020F03D012E0BAF1030F0FD1B9F1030F0C
:1005C00008D1BAF1020F1BD00221404600F08AFD8B
:1005D000761CF6B217B149464046B847641C042C55
:1005E000AED3002E0ED06A460121002000F09AFD05
:1005F00006990098884205D00690089809909DE7D2
:100600000321E2E70CB0BDE8F08700000060004085
:100610004000002000F01F020121914040098000AD
:1006200000F1E020C0F88012704700F01F020121A5
:1006300091404009800000F1E020C0F800117047AF
:1006400000F01F02012191404009800000F1E020EC
:10065000C0F800127047000007480021C0F84011A0
:10066000C0F84411C0F84811C0F84C11C0F800118E
:10067000C0F8041100F014BF00100140044900EB61
:10068000400001EBC000416D806D081A704700000A
:10069000E006002003480078002801D100F00ABAE3
:1006A00070470000E0060020F8B50646002014461A
:1006B0000D46009000F0D1FA22462946304600F05F
:1006C00007F80446002000F0CAFA2046F8BD0000F2
:1006D0002DE9F0471C4D0746164628780C4608B908
:1006E00000F0E8F907EB470005EBC007A046BD6D39
:1006F000D7F85490002448374D4511D9B868441BA9
:10070000B44200D334467868224641194046FFF788
:1007100093FEB868361B2544A044A84200D10025AA
:10072000A9EB0500B04200D206463EB178683246D9
:1007300041194046FFF780FE3444354404B13D6121
:100740002046BDE8F0870000E0060020F8B50B4B1E
:100750000646144618780D4608B900F0ABF900209B
:10076000009000F07AFA22462946304600F008F858
:100770000446002000F073FA2046F8BDE006002091
:1007800070B50E46144900EB400001EBC00514465D
:10079000E86A183520B101280FD0022805D113E0EE
:1007A000284600F0BBF9A04201D2002411E0224605
:1007B0003146284600F0EAF90BE0284600F0AEF991
:1007C000A042F4D20446F2E73146284600F0B1F9DF
:1007D0000446204670BD0000E006002070B50546C6
:1007E0000C460846FFF73AFE024621462846BDE879
:1007F0007040FFF7ABBF00F0EFBD0000F0B59848C8
:100800000023021D01780125101D4FF08056062996
:1008100007D11478240704D10478C4F30314032CFB
:1008200002D0062904D00FE08F4F8E4C7C670EE07B
:100830001478240708D10478C4F30314032C06D0D9
:10084000042C04D0052C02D0062907D00EE0D6F8DF
:100850004442864FC4F342343C6002E014782407DB
:1008600004D10478C4F30314032C02D0062906D063
:1008700011E07F4C276827F0807727600EE014781E
:10088000240708D10478C4F30314032C06D0042CE5
:1008900004D0052C02D006290AD011E04FF0804484
:1008A000C4F80C31C4F81031704C241F236002E0EE
:1008B0001478240704D10478C4F30314032C02D061
:1008C000062905D00CE0694F032464373C600AE038
:1008D0001478240704D10478C4F30314032C02D041
:1008E00006290DD014E0634F05243C60614C783438
:1008F0002560604C083423603F243F1D3C6002E0CB
:100900001478240704D10478C4F30314052C02D00E
:10091000062957D068E058490968584A1160564975
:10092000091D0968121D1160534908310968121D1B
:10093000116051490C310968121D11604E49103186
:100940000968121D11604C4914310968121D1160AB
:10095000494918310968494A2032116046491C3119
:100960000968121D1160444920310968121D116087
:10097000414924310968121D11603F492831096835
:10098000121D11603C492C310968121D11603A4951
:1009900030310968394A40321160374934310968C9
:1009A000121D1160344938310968121D1160324935
:1009B0003C310968121D11602F4940310968121D30
:1009C000116002E0117809070ED10078C0F303101E
:1009D000032803D0042801D0052805D1D6F85802F1
:1009E000274900F04F00086021487438016841F43D
:1009F00070010160BFF34F8FBFF36F8F4FF0102175
:100A0000D1F80002002803DBD1F80402002822DA22
:100A10001C4A15601C480468002CFCD01524C1F841
:100A200000420568002DFCD0C1F80442016800298D
:100A3000FCD0136001680029FCD0BFF34F8F0C4835
:100A4000F0380168114A01F4E06111430160BFF31D
:100A50004F8F00BFFDE70F490D480860F0BD000053
:100A6000E00F00F00DF0ADBA00C007403C050040BB
:100A7000FCED00E0105600400404001020C50040CA
:100A8000E40E004004E5014000E401400400FA05E2
:100A90000090D0032C0000200448017F0448002966
:100AA000024901D000F0EBBD00F05ABD98000020D3
:100AB0000020004010B5124C02202061606111A09E
:100AC000A061A4F50470E0614FF400702062002082
:100AD000A06260620BA1A164E062A4F11001E16474
:100AE00010212165A0656065E06509A1E01DFFF7A3
:100AF000BCFC08A12046FFF7B8FC2020A07110BD67
:100B0000E00600205465726D696E616C00000000A3
:100B10005254540053454747455200000269C1688A
:100B20008A4203D88068401A104400E0501A401EE0
:100B300070472DE9F047C4681746894606464FF0CE
:100B400000083069A04201D9051B02E0B168201AF3
:100B50000D1AB0686D1E001BA84200D80546BD42A4
:100B600000D33D4670682A4620444946FFF764FC9E
:100B7000B0687F1B2C44A844A944A04200D10024A3
:100B8000F460002FDDD14046BDE8F0872DE9F0414B
:100B9000C6680446174688468068851B6068BD4263
:100BA00006D93044FFF748FCF019E060BDE8F08159
:100BB0002A463044FFF740FC7E1B08EB0501324615
:100BC0006068FFF739FCE660F0E702E008C8121F32
:100BD00008C1002AFAD170477047002001E001C126
:100BE000121F002AFBD170470EA1012000F06EFBFE
:100BF00000F0D0FA00F0D2FA0028FBD10F480068CC
:100C0000C00700D000BEBFF34F8F0C48E438016826
:100C10000B4A01F4E06111430160BFF34F8F00BF45
:100C2000FDE700004150505F4552524F523A455245
:100C3000524F523A466174616C0D0A00F0ED00E0CB
:100C40000400FA050EB500210091CDE901106A46B5
:100C500044F20100FFF7C8FF0EBD00F003B800F03A
:100C600009B8000072B602480168491C016070476B
:100C70002000002003490868401E086000D162B6C9
:100C8000704700002000002070B5461C0D4601246E
:100C90000020FFF7E2FF114A10682860D2E9001037
:100CA0009568081A2B1A701C5B1C98420FD963B107
:100CB0000B480C4B294000681B6802EB810163F371
:100CC0009F20C8601068401C1060002401E0881953
:100CD00010600020FFF7C3FF204670BDB800002061
:100CE0007417000028000020034803C8814201D186
:100CF0000120704700207047B800002002490844D6
:100D000090F9300070470000400000202DE9F05FAE
:100D100026484168F1B3DFF898B00E688146DBF8E9
:100D2000004087688078E11B21F07F45ED1CB0B959
:100D3000DFF880804FF48030C8F84403C8F804031B
:100D40001120FFF767FC1120FFF76FFC4FF0010A3D
:100D5000C8F800A02F2000F077F989F802A0B5426A
:100D600000D23546124BE8193C3320F07F40186022
:100D7000DBF800105A46091B21F07F41001B20F0D0
:100D80007F40C91C81420FD9106818602F2000F0E5
:100D90005BF900E004E0BDE8F05F1120FFF750BC14
:100DA000BDE8F05F00F0D4BABDE8F09F000000207D
:100DB00004150140001001400E4910B50A784C7826
:100DC0000023A24212D0521CD2B20A70022A00D1D1
:100DD0000B70084A0B78183252F82320026088689A
:100DE000104420F07F408860012010BD0360002087
:100DF00010BD0000000000202DE9F043264CA4F1B6
:100E000010092278D9F8048099F80350404694F8E4
:100E100001C0D9F8086031E002EB42036168521C5E
:100E200001EBC301A378D2B2934200D100220B7828
:100E3000022B02D0032B21D11DE003464F68194637
:100E400003E0B94203D00B46C969B9B1F9E7A9B1CA
:100E50008B4205D1C06918B9104E0125B560002636
:100E60000F68C969D96149B10B683B440B6005E063
:100E70000174C06900E000210028F9D19445CBD16C
:100E8000C9E9010689F80350404502D00120BDE8B8
:100E9000F0830020FBE7000010000020001001405C
:100EA0002DE9F0412A4F0446002607F11005D7F836
:100EB00004803EE002D02046E4691DE0287869689D
:100EC00000EB4002401CC0B201EBC2012870AA78BE
:100ED000904200D12E700A784868012A2BD1027CFA
:100EE0004ABB8A684260CA6882600A69C26049690E
:100EF0008161F97801B146604368BA68DFF854C08F
:100F0000991A21F07F41614502D28268114406E0BE
:100F1000D11A826821F07F418A4202D9511A0160B8
:100F200000E006604660012186600174C66100F041
:100F300099FA002CBED1287869788842BED17968A8
:100F4000414502D00120BDE8F0810020FBE7000010
:100F500000000020FFFF7F001FB52AA10020FFF73F
:100F60003DFC112000F0B6F8122000F0B3F8132079
:100F700000F0B0F8142000F0ADF8112000F0CAF82D
:100F8000122000F0C7F8132000F0C4F8142000F07D
:100F9000C1F80020FFF772FB0028FAD00020009073
:100FA0000190029003902248401EFDD21022214958
:100FB0000020FFF779FB0446002168461D4A03E044
:100FC000535C4354491CC9B2A142F9D39DF80000B7
:100FD000612808D2112000F096F8224669460020C8
:100FE000FFF7B4FB06E0122000F08DF86946002000
:100FF000FFF7F4FB042801D0132000E0142000F0D8
:1010000082F8C6E7525454204C6F6F706261636B74
:101010002053657373696F6E2073746172746564B5
:101020002C20444B20636F6E6E6563746564000012
:1010300040420F0030000020C20800F007030120EA
:10104000895C98400840704700283ED01F49204ADC
:10105000096800BF00BF00BF00BF00BF00BF00BFE6
:1010600000BF91422FD000BF00BF00BF00BF00BF34
:1010700000BF00BF00BF00BF00BF00BF00BF00BF78
:1010800000BF00BF00BF00BF00BF00BF00BF00BF68
:1010900000BF00BF00BF00BF00BF00BF00BF00BF58
:1010A00000BF00BF00BF00BF00BF00BF00BF00BF48
:1010B00000BF00BF00BF00BF00BF00BF00BF00BF38
:1010C00000BF00BF00BF0138C3D170472C00002013
:1010D0000024F4004FF0A04202EB80000321C0F88E
:1010E000001770474FF0A04202EB8000D0F80027B5
:1010F00022F44032C0F80027D0F8002742EA01412C
:10110000C0F8001770474FF0A04201218140C2F89B
:101110000C1570474FF0A04201218140C2F808151C
:101120007047000018B5084B6C4601441B680093DB
:1011300006E000BF54F82030D3F81035401C08C238
:101140008142F7D818BD000070170000034908B5A8
:101150000844002101600068009008BD0060004064
:1011600002494058012800D000207047006000402C
:1011700070B5074D0446287810B16878844204D0D1
:10118000FFF788FA012028706C70002070BD000005
:10119000240000200120FFF7EBBF00002DE9F04FF5
:1011A00087B0FFF7A1FD18B1002007B0BDE8F08FB0
:1011B000454ED6E9014704EA070006EB8000A14648
:1011C000641CC5680CE000BFC5F3891000EB9550A6
:1011D000044404EA070006EB8000A146C568641CCD
:1011E000A807F1D005F003004FF0000B022805D04E
:1011F000AA0A01A8C5F38313002153E004EA0700FB
:1012000006EB800004F1010A0AEA0704C268381BF1
:1012100080004FEA9558001DC5F38913804521D9F8
:1012200029490C3138B106EB840400F0FF0CA8EB1F
:1012300000000C3404E00C46002108F0FF0C0846C6
:10124000C0B2CDE90210CDE9004CD6F81444C5F384
:10125000C2005946A047404511D108F103080AEBE6
:1012600098042AE0002106EB84000C300090CDE9C0
:1012700001810391C5F3C200D6F81444EAE760F394
:101280008F1509EA070006EB8000C56016E000BF75
:1012900004EA070C06EB8C0C491CDCF80CC040F887
:1012A00004CB641C9942F3D3C5F3C2000093D6F873
:1012B000105401AB5946A84700B17460FFF714FD04
:1012C00080F0010071E70000B80000202DE9F8432C
:1012D0000F4F88460446002569462846BE68FFF73A
:1012E000D3FC002812D00B480021406861F3820033
:1012F000009964F3C50001EA060265F3891007EB63
:10130000820268F39F20491CD0600091BDE8F883F9
:10131000B8000020741700004058002800D00120B9
:10132000704708B5002242504058009008BDD0F8E0
:101330000403084000D0012070474058002800D026
:101340000120704708B5002242504058009008BD67
:1013500070B5012670044FF0E0210025C1F880012E
:10136000084C4010C4F84803C4F8080366602F20F6
:10137000FFF76AFEA660044C2F20A560FFF764FE0D
:10138000A57070BD001001400000002070B505463A
:10139000C87D0C4600284FF4847128460AD0FFF718
:1013A000C0FFD5F81805627EE1688854607E401C55
:1013B000607670BDFFF7B5FFD5F8180570BD1FB595
:1013C00001238DF800308DF808100192D0E9001249
:1013D000684690471FBD00002DE9F84F204C0025BE
:1013E0006846D4E901B6FFF7E7FC8046FFF704FD45
:1013F0000746A946B8F1000F25D00023009ACC4635
:10140000606819E007680146974202D9BA1A02607B
:1014100014E0C1F800C0D1F80C80D21BC8693B446D
:101420008A46B8F1000F07D0F71827F07F47C1E9C7
:101430000178CAF81C500D460028E3D160602846A8
:10144000FFF72EFD04E02846FFF72AFD00B917B18B
:101450005846FFF75BFC84F80390BDE8F88F000066
:10146000000000200D4B10B5596831B102680C68BE
:10147000A24204D8A21A0A60C161586010BD0B468E
:1014800003E00B46C969121B21B10C689442F8D3E2
:10149000A41A0C600260C161D86110BD0000002078
:1014A0002DE9F0411D4D6C68002C35D01C480027FB
:1014B0000068A968B846401A20F07F462068B0420C
:1014C00015D82246361A0744E469107C68B182F8C0
:1014D0001080EB6833B1D2E90501984728B1FFF7D6
:1014E000B1FB02E0D2E905108847002CE6D129784B
:1014F0006878814206D1401CC0B26870022801D1D0
:1015000085F8018005486978183040F82170BDE8F9
:10151000F0411420FFF794B8BDE8F08100000020EE
:101520000415014070B50C4605464FF48E71FFF767
:10153000F8FEA18AA068415CA08A401CA082C5F880
:101540001C1570BD1FB500228DF800208DF8081005
:10155000816801918275D0E90012684690471FBDED
:101560002DE9FF470C4605464FF40071FFF7DFFEFB
:1015700001274FF40178002618B34FF492794946B9
:101580002846FFF7C9FEE0B149462846FFF7C9FEE5
:10159000C5F80883A07E00B96F6002208DF80000B6
:1015A000D5F88004C5F880040390E07D8DF808002C
:1015B000E0680190E6752676D4E900126846904707
:1015C00027E004212846FFF7B2FE10B34FF48471E0
:1015D0002846FFF7A1FEE0B121462846FFF7D6FED8
:1015E000E07D617E884214D1207E38B1617EE26860
:1015F000E0752069E0602676667607E0A07E00B997
:101600006F60C5F80883E675617EE2682046FFF7E3
:10161000D6FE4FF48E7841462846FFF77DFE88B10E
:10162000A08AA17D884204D221462846FFF77AFF8E
:1016300008E041462846FFF774FEA17D11B120461F
:10164000FFF780FF4FF4A27841462846FFF764FE7B
:10165000002812D041462846FFF763FEA07E00B165
:101660002F60E07D002808D0E675617EE26804B056
:101670002046BDE8F047FFF7A2BEBDE8FF872DE991
:10168000FF410C464FF4927705463946FFF755FE69
:101690000026C0B139462846FFF754FE02208DF8D7
:1016A0000000D5F88004C5F880040390D5F83C0507
:1016B0008DF80800E0680190E6752676D4E90012FE
:1016C0006846904724E04FF4887739462846FFF76C
:1016D00034FEE8B139462846FFF734FED5F83C051C
:1016E000C1B2E07D884213D1207E60B1E268D5F8B6
:1016F000000220F02000C5F80002207EE07520697D
:10170000E060267601E0E675E2682046FFF757FEC6
:101710004FF4A27739462846FFF70FFE68B13946E5
:101720002846FFF70FFEE07D38B1E675D5F83C0599
:10173000E268C1B22046FFF742FE4FF49076314690
:101740002846FFF7FAFD00280FD031462846FFF75C
:10175000F9FDA07D002808D0D5F84C0504B0C1B231
:101760002046BDE8F041FFF7EDBEBDE8FF81000077
:1017700000000050290000000100000001000000EE
:101780000100000001000000010000000100000055
:1017900001000000020000004F766572666C6F77F2
:1017A0000D0A0000C41700000000002030000000F7
:1017B000CA0B0000F41700003000002028270000AA
:1017C000DA0B000000000000000000000000000034
:1017D0000000000000000000000000000000000009
:1017E000000000000000000000000000981700004A
:0417F0000090D00392
:0400000500000401F2
:00000001FF
