:020000040100F9
:10000000082000215D020001650200016702000175
:10001000690200016B0200016D0200016F02000124
:10002000000000000000000000000000710200015C
:100030007302000100000000750200017702000158
:1000400000000000000000000000000000000000B0
:100050000000000079020001000000000000000024
:1000600079020001790200017902000179020001A0
:10007000790200017902000179020001000000000C
:100080007902000179020001790200017902000180
:100090007902000100000000790200010000000068
:1000A0007902000179020001790200017902000160
:1000B0007902000179020001000000000000000048
:1000C0000000000000000000000000000000000030
:1000D0000000000000000000000000000000000020
:1000E0000000000000000000000000000000000010
:1000F0000000000000000000000000000000000000
:1001000000000000000000000000000000000000EF
:1001100000000000000000000000000000000000DF
:1001200000000000000000000000000000000000CF
:1001300000000000000000000000000000000000BF
:1001400000000000000000000000000000000000AF
:10015000000000000000000000000000000000009F
:10016000000000000000000000000000000000008F
:10017000000000000000000000000000000000007F
:10018000000000000000000000000000000000006F
:10019000000000000000000000000000000000005F
:1001A000000000000000000000000000000000004F
:1001B000000000000000000000000000000000003F
:1001C000000000000000000000000000000000002F
:1001D000000000000000000000000000000000001F
:1001E000000000000000000000000000000000000F
:1001F00000000000000000000000000000000000FF
:1002000000000000000000000000000000000000EE
:1002100000000000000000000000000000000000DE
:1002200000000000000000000000000000000000CE
:1002300000000000000000000000000000000000BE
:1002400000000000DFF80CD000F03EF80048004746
:100250005902000108200021FEE7000007488047FE
:1002600007480047FEE7FEE7FEE7FEE7FEE7FEE79A
:10027000FEE7FEE7FEE7FEE7FEE70000950200016D
:100280004502000101480249016070470000002159
:100290000090D003002009490AE051F830200132D3
:1002A00008D001EBC002526851F8303001301A60BA
:1002B000FF28F2D902480349016070470003FF019B
:1002C000000000210090D003064C074D06E0E068D6
:1002D00040F0010394E8070098471034AC42F6D38D
:1002E000FFF7B4FF0C0300012C03000102E008C873
:1002F000121F08C1002AFAD170477047002001E0A0
:1003000001C1121F002AFBD1704700003003000119
:100310000000002108000000EC0200013803000189
:100320000800002100200000FC0200010000000085
:080330000090D0030000000062
:0400000501000245AF
:00000001FF
