:020000040000FA
:10000000082000201904000021040000230400003F
:100010002504000027040000290400002B04000030
:100020000000000000000000000000002D0400009F
:100030002F04000000000000310400003304000021
:100040003504000035040000000000003504000005
:100050000000000035040000000000000000000067
:1000600035040000350400003504000000000000E5
:1000700000000000350400003504000035040000D5
:1000800035040000350400000000000000000000FE
:1000900035040000350400000000000000000000EE
:1000A000350400003504000035040000350400006C
:1000B000350400003504000035040000350400005C
:1000C000350400003504000035040000350400004C
:1000D00000000000000000003504000000000000E7
:1000E0003504000000000000350400003504000065
:1000F000000000003504000000000000350400008E
:1001000000000000000000000000000000000000EF
:10011000000000000000000035040000350400006D
:100120000000000035040000000000000000000096
:1001300000000000000000000000000000000000BF
:1001400000000000000000000000000000000000AF
:100150003504000000000000000000000000000066
:10016000000000000000000000000000000000008F
:10017000000000000000000000000000000000007F
:10018000000000000000000000000000000000006F
:10019000000000000000000000000000000000005F
:10040000DFF80CD000F04EF800480047150400005B
:1004100008200020FEE70000074880470748004703
:10042000FEE7FEE7FEE7FEE7FEE7FEE7FEE7FEE7A4
:10043000FEE7FEE7FEE700005104000001040000B3
:100440000148024901607047000000200020A10718
:10045000002010490AE051F83020013208D001EBA9
:10046000C002526851F8303001301A60FF28F2D9CA
:100470000948416841F440614160016841F47001FC
:100480000160BFF34F8F0548BFF36F8F04490160D0
:10049000704700BF0003FF0088ED00E0000000206F
:1004A0000020A107064C074D06E0E06840F001037C
:1004B00094E8070098471034AC42F6D3FFF7A4FF46
:1004C000E80400000805000002E008C8121F08C187
:1004D000002AFAD170477047002001E001C1121FC5
:1004E000002AFBD170470000080500000000002032
:1004F00008000000C80400001005000008000020EB
:1005000000200000D80400000020A1070000000027
:0400000500000401F2
:00000001FF
